:1000000012C01FC01EC01DC01CC01BC01AC019C01A
:1000100018C017C016C015C014C013C012C011C03C
:1000200010C00FC00EC011241FBECFEDCDBF10E019
:10003000A0E6B0E001C01D92A23AB107E1F735D0C9
:10004000DFC1DECF539A83B1866083B912B88FE1E6
:1000500089B90895282FE091A100EF5F9E2F9F732B
:10006000E1508091A000891711F480E00895F0E03C
:10007000E05AFF4F20839093A10081E00895DC01B6
:10008000E091A0008091A100E81711F480E00895AC
:10009000F0E0E05AFF4F80818C938091A0008F5F49
:1000A0008F738093A00081E008952F923F924F922A
:1000B0005F926F927F928F929F92AF92BF92CF92F8
:1000C000DF92EF92FF920F931F93DF93CF93CDB701
:1000D000DEB729970FB6F894DEBF0FBECDBFB89834
:1000E000C098C19AAFDF88EB9BE020E931E0F901CD
:1000F0003197F1F70197D9F719821091A100F0908B
:10010000A000DD2440E0EE24CC24CA943E010894F3
:10011000611C711C60E4862E5FE1252E312C01C02C
:10012000EE2486B38095442319F09D2DD82E0AC065
:100130009D2DD82E04C086B39D2DD82ED094D4FCEE
:10014000FACF41E0892F80958D2182FF08C1A42E2E
:10015000BB249501277030702115310511F0413015
:1001600049F4842F869586958695F301E80FF11D55
:10017000408010826D2D70E0CB018870907033E06C
:10018000959587953A95E1F7022E02C0880F991F41
:100190000A94E2F7982E842F869586958695A82F47
:1001A000B0E0F301EA0FFB1F5080842D892590E019
:1001B00002C0959587952A95E2F780FF67C0842F46
:1001C00081508F3308F062C08F51823008F45EC0D6
:1001D000403230F4C5016EEF7FEFD9D08E5906C0A2
:1001E000C1018A199B09880F991F8B59E12FEF5F75
:1001F000992029F19E2F9F73F91611F4912F06C0B3
:10020000E12FF0E0E05AFF4F20E920839F5F292F84
:100210002F739150F21611F4292F05C0E92FF0E049
:10022000E05AFF4F80832F5F122F1F732150F1166A
:1002300029F1E22FF0E0E05AFF4F808283C09E2F29
:100240009F73F91611F4912F06C0E12FF0E0E05AE8
:10025000FF4F20E820839F5F292F2F739150F216C4
:1002600011F4292F05C0E92FF0E0E05AFF4F8083F9
:100270002F5F122F1F732150F11611F4122F62C03D
:10028000E22FF0E0E05AFF4F10825CC0403411F0E2
:1002900001E05BC08D2D8C2581FD02C0CD2C55C0A9
:1002A000E12FEF5F61FF26C08E2F8F73F81611F4D8
:1002B000812F06C0E12FF0E0E05AFF4F90EB9083D2
:1002C0008F5F982F9F738150F91611F4982F05C0F6
:1002D000E82FF0E0E05AFF4F80829F5F192F1F73D5
:1002E0009150F11631F1E92FF0E0E05AFF4F2FE77E
:1002F000208327C08E2F8F73F81611F4812F06C02C
:10030000E12FF0E0E05AFF4F90EB90838F5F982F42
:100310009F738150F91611F4982F05C0E82FF0E073
:10032000E05AFF4F80829F5F192F1F739150F11683
:1003300019F4CD2C192F06C0E92FF0E0E05AFF4F39
:100340001082CD2CEE24E39400E0A60DB71D952875
:100350009C92C501019661E470E02BD0482FEE20FD
:1003600009F4DFCE002309F4DCCE442309F4D9CE0E
:100370005D9BD7CEF11609F4D3CEEF2DF0E0E05A15
:10038000FF4F8081F3942FE3F2228CB9CACE552718
:10039000002480FF02C0060E571F660F771F6115ED
:1003A000710521F096958795009799F7952F802DE7
:1003B000089597FB092E07260AD077FD04D00CD0AC
:1003C00006D000201AF4709561957F4F0895F6F7D6
:1003D000909581959F4F0895AA1BBB1B51E107C0C3
:1003E000AA1FBB1FA617B70710F0A61BB70B881FC5
:1003F000991F5A95A9F780959095BC01CD01089554
:04040000F894FFCF9E
:00000001FF
